{
  "_format": "hh-sol-artifact-1",
  "contractName": "BuyMyRoom",
  "sourceName": "contracts/BuyMyRoom.sol",
  "abi": [
    {
      "inputs": [
        {
          "internalType": "contract IERC20",
          "name": "_token",
          "type": "address"
        }
      ],
      "stateMutability": "nonpayable",
      "type": "constructor"
    },
    {
      "inputs": [
        {
          "internalType": "address",
          "name": "sender",
          "type": "address"
        },
        {
          "internalType": "uint256",
          "name": "tokenId",
          "type": "uint256"
        },
        {
          "internalType": "address",
          "name": "owner",
          "type": "address"
        }
      ],
      "name": "ERC721IncorrectOwner",
      "type": "error"
    },
    {
      "inputs": [
        {
          "internalType": "address",
          "name": "operator",
          "type": "address"
        },
        {
          "internalType": "uint256",
          "name": "tokenId",
          "type": "uint256"
        }
      ],
      "name": "ERC721InsufficientApproval",
      "type": "error"
    },
    {
      "inputs": [
        {
          "internalType": "address",
          "name": "approver",
          "type": "address"
        }
      ],
      "name": "ERC721InvalidApprover",
      "type": "error"
    },
    {
      "inputs": [
        {
          "internalType": "address",
          "name": "operator",
          "type": "address"
        }
      ],
      "name": "ERC721InvalidOperator",
      "type": "error"
    },
    {
      "inputs": [
        {
          "internalType": "address",
          "name": "owner",
          "type": "address"
        }
      ],
      "name": "ERC721InvalidOwner",
      "type": "error"
    },
    {
      "inputs": [
        {
          "internalType": "address",
          "name": "receiver",
          "type": "address"
        }
      ],
      "name": "ERC721InvalidReceiver",
      "type": "error"
    },
    {
      "inputs": [
        {
          "internalType": "address",
          "name": "sender",
          "type": "address"
        }
      ],
      "name": "ERC721InvalidSender",
      "type": "error"
    },
    {
      "inputs": [
        {
          "internalType": "uint256",
          "name": "tokenId",
          "type": "uint256"
        }
      ],
      "name": "ERC721NonexistentToken",
      "type": "error"
    },
    {
      "anonymous": false,
      "inputs": [
        {
          "indexed": true,
          "internalType": "address",
          "name": "owner",
          "type": "address"
        },
        {
          "indexed": true,
          "internalType": "address",
          "name": "approved",
          "type": "address"
        },
        {
          "indexed": true,
          "internalType": "uint256",
          "name": "tokenId",
          "type": "uint256"
        }
      ],
      "name": "Approval",
      "type": "event"
    },
    {
      "anonymous": false,
      "inputs": [
        {
          "indexed": true,
          "internalType": "address",
          "name": "owner",
          "type": "address"
        },
        {
          "indexed": true,
          "internalType": "address",
          "name": "operator",
          "type": "address"
        },
        {
          "indexed": false,
          "internalType": "bool",
          "name": "approved",
          "type": "bool"
        }
      ],
      "name": "ApprovalForAll",
      "type": "event"
    },
    {
      "anonymous": false,
      "inputs": [
        {
          "indexed": true,
          "internalType": "uint256",
          "name": "tokenId",
          "type": "uint256"
        },
        {
          "indexed": true,
          "internalType": "address",
          "name": "owner",
          "type": "address"
        }
      ],
      "name": "HouseDelisted",
      "type": "event"
    },
    {
      "anonymous": false,
      "inputs": [
        {
          "indexed": false,
          "internalType": "uint256",
          "name": "tokenId",
          "type": "uint256"
        },
        {
          "indexed": false,
          "internalType": "uint256",
          "name": "price",
          "type": "uint256"
        },
        {
          "indexed": false,
          "internalType": "address",
          "name": "owner",
          "type": "address"
        }
      ],
      "name": "HouseListed",
      "type": "event"
    },
    {
      "anonymous": false,
      "inputs": [
        {
          "indexed": false,
          "internalType": "uint256",
          "name": "tokenId",
          "type": "uint256"
        },
        {
          "indexed": false,
          "internalType": "uint256",
          "name": "price",
          "type": "uint256"
        },
        {
          "indexed": false,
          "internalType": "address",
          "name": "seller",
          "type": "address"
        },
        {
          "indexed": false,
          "internalType": "address",
          "name": "buyer",
          "type": "address"
        }
      ],
      "name": "HouseSold",
      "type": "event"
    },
    {
      "anonymous": false,
      "inputs": [
        {
          "indexed": true,
          "internalType": "address",
          "name": "from",
          "type": "address"
        },
        {
          "indexed": true,
          "internalType": "address",
          "name": "to",
          "type": "address"
        },
        {
          "indexed": true,
          "internalType": "uint256",
          "name": "tokenId",
          "type": "uint256"
        }
      ],
      "name": "Transfer",
      "type": "event"
    },
    {
      "inputs": [
        {
          "internalType": "address",
          "name": "to",
          "type": "address"
        },
        {
          "internalType": "uint256",
          "name": "tokenId",
          "type": "uint256"
        }
      ],
      "name": "approve",
      "outputs": [],
      "stateMutability": "nonpayable",
      "type": "function"
    },
    {
      "inputs": [
        {
          "internalType": "address",
          "name": "owner",
          "type": "address"
        }
      ],
      "name": "balanceOf",
      "outputs": [
        {
          "internalType": "uint256",
          "name": "",
          "type": "uint256"
        }
      ],
      "stateMutability": "view",
      "type": "function"
    },
    {
      "inputs": [
        {
          "internalType": "uint256",
          "name": "tokenId",
          "type": "uint256"
        }
      ],
      "name": "buyHouseWithToken",
      "outputs": [],
      "stateMutability": "nonpayable",
      "type": "function"
    },
    {
      "inputs": [],
      "name": "count",
      "outputs": [
        {
          "internalType": "uint256",
          "name": "",
          "type": "uint256"
        }
      ],
      "stateMutability": "view",
      "type": "function"
    },
    {
      "inputs": [
        {
          "internalType": "uint256",
          "name": "tokenId",
          "type": "uint256"
        }
      ],
      "name": "delistHouse",
      "outputs": [],
      "stateMutability": "nonpayable",
      "type": "function"
    },
    {
      "inputs": [],
      "name": "feeAccount",
      "outputs": [
        {
          "internalType": "address",
          "name": "",
          "type": "address"
        }
      ],
      "stateMutability": "view",
      "type": "function"
    },
    {
      "inputs": [],
      "name": "feeRate",
      "outputs": [
        {
          "internalType": "uint256",
          "name": "",
          "type": "uint256"
        }
      ],
      "stateMutability": "view",
      "type": "function"
    },
    {
      "inputs": [],
      "name": "getAllListedHouses",
      "outputs": [
        {
          "internalType": "uint256[]",
          "name": "",
          "type": "uint256[]"
        }
      ],
      "stateMutability": "view",
      "type": "function"
    },
    {
      "inputs": [
        {
          "internalType": "uint256",
          "name": "tokenId",
          "type": "uint256"
        }
      ],
      "name": "getApproved",
      "outputs": [
        {
          "internalType": "address",
          "name": "",
          "type": "address"
        }
      ],
      "stateMutability": "view",
      "type": "function"
    },
    {
      "inputs": [],
      "name": "getMyHouses",
      "outputs": [
        {
          "internalType": "uint256[]",
          "name": "",
          "type": "uint256[]"
        }
      ],
      "stateMutability": "view",
      "type": "function"
    },
    {
      "inputs": [],
      "name": "helloworld",
      "outputs": [
        {
          "internalType": "string",
          "name": "",
          "type": "string"
        }
      ],
      "stateMutability": "pure",
      "type": "function"
    },
    {
      "inputs": [
        {
          "internalType": "uint256",
          "name": "",
          "type": "uint256"
        }
      ],
      "name": "houses",
      "outputs": [
        {
          "internalType": "address",
          "name": "owner",
          "type": "address"
        },
        {
          "internalType": "uint256",
          "name": "price",
          "type": "uint256"
        },
        {
          "internalType": "uint256",
          "name": "listedTimestamp",
          "type": "uint256"
        },
        {
          "internalType": "bool",
          "name": "isListed",
          "type": "bool"
        }
      ],
      "stateMutability": "view",
      "type": "function"
    },
    {
      "inputs": [
        {
          "internalType": "address",
          "name": "owner",
          "type": "address"
        },
        {
          "internalType": "address",
          "name": "operator",
          "type": "address"
        }
      ],
      "name": "isApprovedForAll",
      "outputs": [
        {
          "internalType": "bool",
          "name": "",
          "type": "bool"
        }
      ],
      "stateMutability": "view",
      "type": "function"
    },
    {
      "inputs": [
        {
          "internalType": "uint256",
          "name": "tokenId",
          "type": "uint256"
        },
        {
          "internalType": "uint256",
          "name": "price",
          "type": "uint256"
        }
      ],
      "name": "listHouse",
      "outputs": [],
      "stateMutability": "nonpayable",
      "type": "function"
    },
    {
      "inputs": [
        {
          "internalType": "uint256",
          "name": "",
          "type": "uint256"
        }
      ],
      "name": "listedHouses",
      "outputs": [
        {
          "internalType": "uint256",
          "name": "",
          "type": "uint256"
        }
      ],
      "stateMutability": "view",
      "type": "function"
    },
    {
      "inputs": [
        {
          "internalType": "address",
          "name": "to",
          "type": "address"
        }
      ],
      "name": "mintHouse",
      "outputs": [],
      "stateMutability": "nonpayable",
      "type": "function"
    },
    {
      "inputs": [],
      "name": "name",
      "outputs": [
        {
          "internalType": "string",
          "name": "",
          "type": "string"
        }
      ],
      "stateMutability": "view",
      "type": "function"
    },
    {
      "inputs": [
        {
          "internalType": "uint256",
          "name": "tokenId",
          "type": "uint256"
        }
      ],
      "name": "ownerOf",
      "outputs": [
        {
          "internalType": "address",
          "name": "",
          "type": "address"
        }
      ],
      "stateMutability": "view",
      "type": "function"
    },
    {
      "inputs": [
        {
          "internalType": "address",
          "name": "from",
          "type": "address"
        },
        {
          "internalType": "address",
          "name": "to",
          "type": "address"
        },
        {
          "internalType": "uint256",
          "name": "tokenId",
          "type": "uint256"
        }
      ],
      "name": "safeTransferFrom",
      "outputs": [],
      "stateMutability": "nonpayable",
      "type": "function"
    },
    {
      "inputs": [
        {
          "internalType": "address",
          "name": "from",
          "type": "address"
        },
        {
          "internalType": "address",
          "name": "to",
          "type": "address"
        },
        {
          "internalType": "uint256",
          "name": "tokenId",
          "type": "uint256"
        },
        {
          "internalType": "bytes",
          "name": "data",
          "type": "bytes"
        }
      ],
      "name": "safeTransferFrom",
      "outputs": [],
      "stateMutability": "nonpayable",
      "type": "function"
    },
    {
      "inputs": [
        {
          "internalType": "address",
          "name": "operator",
          "type": "address"
        },
        {
          "internalType": "bool",
          "name": "approved",
          "type": "bool"
        }
      ],
      "name": "setApprovalForAll",
      "outputs": [],
      "stateMutability": "nonpayable",
      "type": "function"
    },
    {
      "inputs": [
        {
          "internalType": "bytes4",
          "name": "interfaceId",
          "type": "bytes4"
        }
      ],
      "name": "supportsInterface",
      "outputs": [
        {
          "internalType": "bool",
          "name": "",
          "type": "bool"
        }
      ],
      "stateMutability": "view",
      "type": "function"
    },
    {
      "inputs": [],
      "name": "symbol",
      "outputs": [
        {
          "internalType": "string",
          "name": "",
          "type": "string"
        }
      ],
      "stateMutability": "view",
      "type": "function"
    },
    {
      "inputs": [],
      "name": "token",
      "outputs": [
        {
          "internalType": "contract IERC20",
          "name": "",
          "type": "address"
        }
      ],
      "stateMutability": "view",
      "type": "function"
    },
    {
      "inputs": [
        {
          "internalType": "uint256",
          "name": "tokenId",
          "type": "uint256"
        }
      ],
      "name": "tokenURI",
      "outputs": [
        {
          "internalType": "string",
          "name": "",
          "type": "string"
        }
      ],
      "stateMutability": "view",
      "type": "function"
    },
    {
      "inputs": [
        {
          "internalType": "address",
          "name": "from",
          "type": "address"
        },
        {
          "internalType": "address",
          "name": "to",
          "type": "address"
        },
        {
          "internalType": "uint256",
          "name": "tokenId",
          "type": "uint256"
        }
      ],
      "name": "transferFrom",
      "outputs": [],
      "stateMutability": "nonpayable",
      "type": "function"
    },
    {
      "inputs": [
        {
          "internalType": "address",
          "name": "newFeeAccount",
          "type": "address"
        }
      ],
      "name": "updateFeeAccount",
      "outputs": [],
      "stateMutability": "nonpayable",
      "type": "function"
    }
  ],
  "bytecode": "0x608060405260016009556001600a553480156200001b57600080fd5b5060405162003e0b38038062003e0b8339818101604052810190620000419190620001da565b6040518060400160405280600981526020017f4275794d79526f6f6d00000000000000000000000000000000000000000000008152506040518060400160405280600381526020017f424d5200000000000000000000000000000000000000000000000000000000008152508160009081620000be919062000486565b508060019081620000d0919062000486565b50505080600660006101000a81548173ffffffffffffffffffffffffffffffffffffffff021916908373ffffffffffffffffffffffffffffffffffffffff16021790555033600b60006101000a81548173ffffffffffffffffffffffffffffffffffffffff021916908373ffffffffffffffffffffffffffffffffffffffff160217905550506200056d565b600080fd5b600073ffffffffffffffffffffffffffffffffffffffff82169050919050565b60006200018e8262000161565b9050919050565b6000620001a28262000181565b9050919050565b620001b48162000195565b8114620001c057600080fd5b50565b600081519050620001d481620001a9565b92915050565b600060208284031215620001f357620001f26200015c565b5b60006200020384828501620001c3565b91505092915050565b600081519050919050565b7f4e487b7100000000000000000000000000000000000000000000000000000000600052604160045260246000fd5b7f4e487b7100000000000000000000000000000000000000000000000000000000600052602260045260246000fd5b600060028204905060018216806200028e57607f821691505b602082108103620002a457620002a362000246565b5b50919050565b60008190508160005260206000209050919050565b60006020601f8301049050919050565b600082821b905092915050565b6000600883026200030e7fffffffffffffffffffffffffffffffffffffffffffffffffffffffffffffffff82620002cf565b6200031a8683620002cf565b95508019841693508086168417925050509392505050565b6000819050919050565b6000819050919050565b600062000367620003616200035b8462000332565b6200033c565b62000332565b9050919050565b6000819050919050565b620003838362000346565b6200039b62000392826200036e565b848454620002dc565b825550505050565b600090565b620003b2620003a3565b620003bf81848462000378565b505050565b5b81811015620003e757620003db600082620003a8565b600181019050620003c5565b5050565b601f82111562000436576200040081620002aa565b6200040b84620002bf565b810160208510156200041b578190505b620004336200042a85620002bf565b830182620003c4565b50505b505050565b600082821c905092915050565b60006200045b600019846008026200043b565b1980831691505092915050565b600062000476838362000448565b9150826002028217905092915050565b62000491826200020c565b67ffffffffffffffff811115620004ad57620004ac62000217565b5b620004b9825462000275565b620004c6828285620003eb565b600060209050601f831160018114620004fe5760008415620004e9578287015190505b620004f5858262000468565b86555062000565565b601f1984166200050e86620002aa565b60005b82811015620005385784890151825560018201915060208501945060208101905062000511565b8683101562000558578489015162000554601f89168262000448565b8355505b6001600288020188555050505b505050505050565b61388e806200057d6000396000f3fe608060405234801561001057600080fd5b50600436106101a95760003560e01c806370a08231116100f9578063aeda852f11610097578063c87b56dd11610071578063c87b56dd146104bd578063e985e9c5146104ed578063fc0c546a1461051d578063fff13ee71461053b576101a9565b8063aeda852f14610450578063b14f1afd14610483578063b88d4fde146104a1576101a9565b8063978bbdb9116100d3578063978bbdb9146103de5780639946f084146103fc57806399b2317814610418578063a22cb46514610434576101a9565b806370a0823114610372578063819782b3146103a257806395d89b41146103c0576101a9565b806323b872dd11610166578063410d5d5411610140578063410d5d54146102d857806342842e0e146103085780636352211e1461032457806365e17c9d14610354576101a9565b806323b872dd146102825780632f2f48591461029e5780633c3b0b4a146102bc576101a9565b806301ffc9a7146101ae578063040005d2146101de57806306661abd146101fa57806306fdde0314610218578063081812fc14610236578063095ea7b314610266575b600080fd5b6101c860048036038101906101c3919061282a565b610557565b6040516101d59190612872565b60405180910390f35b6101f860048036038101906101f391906128c3565b610639565b005b610202610aba565b60405161020f91906128ff565b60405180910390f35b610220610ac0565b60405161022d91906129aa565b60405180910390f35b610250600480360381019061024b91906128c3565b610b52565b60405161025d9190612a0d565b60405180910390f35b610280600480360381019061027b9190612a54565b610b6e565b005b61029c60048036038101906102979190612a94565b610b84565b005b6102a6610c86565b6040516102b391906129aa565b60405180910390f35b6102d660048036038101906102d191906128c3565b610cc3565b005b6102f260048036038101906102ed91906128c3565b610e40565b6040516102ff91906128ff565b60405180910390f35b610322600480360381019061031d9190612a94565b610e64565b005b61033e600480360381019061033991906128c3565b610e84565b60405161034b9190612a0d565b60405180910390f35b61035c610e96565b6040516103699190612a0d565b60405180910390f35b61038c60048036038101906103879190612ae7565b610ebc565b60405161039991906128ff565b60405180910390f35b6103aa610f76565b6040516103b79190612bd2565b60405180910390f35b6103c8610fce565b6040516103d591906129aa565b60405180910390f35b6103e6611060565b6040516103f391906128ff565b60405180910390f35b61041660048036038101906104119190612ae7565b611066565b005b610432600480360381019061042d9190612bf4565b6111f0565b005b61044e60048036038101906104499190612c60565b6113e0565b005b61046a600480360381019061046591906128c3565b6113f6565b60405161047a9493929190612ca0565b60405180910390f35b61048b611453565b6040516104989190612bd2565b60405180910390f35b6104bb60048036038101906104b69190612e1a565b611576565b005b6104d760048036038101906104d291906128c3565b61159b565b6040516104e491906129aa565b60405180910390f35b61050760048036038101906105029190612e9d565b611604565b6040516105149190612872565b60405180910390f35b610525611698565b6040516105329190612f3c565b60405180910390f35b61055560048036038101906105509190612ae7565b6116be565b005b60007f80ac58cd000000000000000000000000000000000000000000000000000000007bffffffffffffffffffffffffffffffffffffffffffffffffffffffff1916827bffffffffffffffffffffffffffffffffffffffffffffffffffffffff1916148061062257507f5b5e139f000000000000000000000000000000000000000000000000000000007bffffffffffffffffffffffffffffffffffffffffffffffffffffffff1916827bffffffffffffffffffffffffffffffffffffffffffffffffffffffff1916145b80610632575061063182611792565b5b9050919050565b6000600760008381526020019081526020016000206040518060800160405290816000820160009054906101000a900473ffffffffffffffffffffffffffffffffffffffff1673ffffffffffffffffffffffffffffffffffffffff1673ffffffffffffffffffffffffffffffffffffffff16815260200160018201548152602001600282015481526020016003820160009054906101000a900460ff16151515158152505090508060600151610724576040517f08c379a000000000000000000000000000000000000000000000000000000000815260040161071b90612fa3565b60405180910390fd5b3373ffffffffffffffffffffffffffffffffffffffff166007600084815260200190815260200160002060000160009054906101000a900473ffffffffffffffffffffffffffffffffffffffff1673ffffffffffffffffffffffffffffffffffffffff16036107c8576040517f08c379a00000000000000000000000000000000000000000000000000000000081526004016107bf9061300f565b60405180910390fd5b60006107d3826117fc565b905060008183602001516107e7919061305e565b9050600660009054906101000a900473ffffffffffffffffffffffffffffffffffffffff1673ffffffffffffffffffffffffffffffffffffffff166323b872dd338560000151846040518463ffffffff1660e01b815260040161084c93929190613092565b6020604051808303816000875af115801561086b573d6000803e3d6000fd5b505050506040513d601f19601f8201168201806040525081019061088f91906130de565b6108ce576040517f08c379a00000000000000000000000000000000000000000000000000000000081526004016108c590613157565b60405180910390fd5b600660009054906101000a900473ffffffffffffffffffffffffffffffffffffffff1673ffffffffffffffffffffffffffffffffffffffff166323b872dd33600b60009054906101000a900473ffffffffffffffffffffffffffffffffffffffff16856040518463ffffffff1660e01b815260040161094f93929190613092565b6020604051808303816000875af115801561096e573d6000803e3d6000fd5b505050506040513d601f19601f8201168201806040525081019061099291906130de565b6109d1576040517f08c379a00000000000000000000000000000000000000000000000000000000081526004016109c8906131c3565b60405180910390fd5b6109e083600001513386611878565b336007600086815260200190815260200160002060000160006101000a81548173ffffffffffffffffffffffffffffffffffffffff021916908373ffffffffffffffffffffffffffffffffffffffff16021790555060006007600086815260200190815260200160002060030160006101000a81548160ff021916908315150217905550610a6f6008856119e5565b7f6fd7da1e5aabdf035f2d60271746b8b696eca06faba052c2331da059aaf9419a848460200151856000015133604051610aac94939291906131e3565b60405180910390a150505050565b600a5481565b606060008054610acf90613257565b80601f0160208091040260200160405190810160405280929190818152602001828054610afb90613257565b8015610b485780601f10610b1d57610100808354040283529160200191610b48565b820191906000526020600020905b815481529060010190602001808311610b2b57829003601f168201915b5050505050905090565b6000610b5d82611aab565b50610b6782611b33565b9050919050565b610b808282610b7b611b70565b611b78565b5050565b600073ffffffffffffffffffffffffffffffffffffffff168273ffffffffffffffffffffffffffffffffffffffff1603610bf65760006040517f64a0ae92000000000000000000000000000000000000000000000000000000008152600401610bed9190612a0d565b60405180910390fd5b6000610c0a8383610c05611b70565b611b8a565b90508373ffffffffffffffffffffffffffffffffffffffff168173ffffffffffffffffffffffffffffffffffffffff1614610c80578382826040517f64283d7b000000000000000000000000000000000000000000000000000000008152600401610c7793929190613288565b60405180910390fd5b50505050565b60606040518060400160405280600b81526020017f68656c6c6f20776f726c64000000000000000000000000000000000000000000815250905090565b3373ffffffffffffffffffffffffffffffffffffffff16610ce382610e84565b73ffffffffffffffffffffffffffffffffffffffff1614610d39576040517f08c379a0000000000000000000000000000000000000000000000000000000008152600401610d3090613331565b60405180910390fd5b600115156007600083815260200190815260200160002060030160009054906101000a900460ff16151514610da3576040517f08c379a0000000000000000000000000000000000000000000000000000000008152600401610d9a9061339d565b60405180910390fd5b60006007600083815260200190815260200160002060030160006101000a81548160ff02191690831515021790555060006007600083815260200190815260200160002060020181905550610df96008826119e5565b3373ffffffffffffffffffffffffffffffffffffffff16817f729606fdcae8235b5150dcf1480e222ab8cf12d032ace131cb8baeacf9ec970660405160405180910390a350565b60088181548110610e5057600080fd5b906000526020600020016000915090505481565b610e7f83838360405180602001604052806000815250611576565b505050565b6000610e8f82611aab565b9050919050565b600b60009054906101000a900473ffffffffffffffffffffffffffffffffffffffff1681565b60008073ffffffffffffffffffffffffffffffffffffffff168273ffffffffffffffffffffffffffffffffffffffff1603610f2f5760006040517f89c62b64000000000000000000000000000000000000000000000000000000008152600401610f269190612a0d565b60405180910390fd5b600360008373ffffffffffffffffffffffffffffffffffffffff1673ffffffffffffffffffffffffffffffffffffffff168152602001908152602001600020549050919050565b60606008805480602002602001604051908101604052809291908181526020018280548015610fc457602002820191906000526020600020905b815481526020019060010190808311610fb0575b5050505050905090565b606060018054610fdd90613257565b80601f016020809104026020016040519081016040528092919081815260200182805461100990613257565b80156110565780601f1061102b57610100808354040283529160200191611056565b820191906000526020600020905b81548152906001019060200180831161103957829003601f168201915b5050505050905090565b60095481565b600b60009054906101000a900473ffffffffffffffffffffffffffffffffffffffff1673ffffffffffffffffffffffffffffffffffffffff163373ffffffffffffffffffffffffffffffffffffffff16146110f6576040517f08c379a00000000000000000000000000000000000000000000000000000000081526004016110ed90613409565b60405180910390fd5b6000600a549050600a600081548092919061111090613429565b919050555061111f8282611da4565b60405180608001604052808373ffffffffffffffffffffffffffffffffffffffff1681526020016000815260200160008152602001600015158152506007600083815260200190815260200160002060008201518160000160006101000a81548173ffffffffffffffffffffffffffffffffffffffff021916908373ffffffffffffffffffffffffffffffffffffffff160217905550602082015181600101556040820151816002015560608201518160030160006101000a81548160ff0219169083151502179055509050505050565b3373ffffffffffffffffffffffffffffffffffffffff1661121083610e84565b73ffffffffffffffffffffffffffffffffffffffff1614611266576040517f08c379a000000000000000000000000000000000000000000000000000000000815260040161125d90613331565b60405180910390fd5b600081116112a9576040517f08c379a00000000000000000000000000000000000000000000000000000000081526004016112a0906134bd565b60405180910390fd5b600015156007600084815260200190815260200160002060030160009054906101000a900460ff16151514611313576040517f08c379a000000000000000000000000000000000000000000000000000000000815260040161130a90613529565b60405180910390fd5b80600760008481526020019081526020016000206001018190555042600760008481526020019081526020016000206002018190555060016007600084815260200190815260200160002060030160006101000a81548160ff02191690831515021790555060088290806001815401808255809150506001900390600052602060002001600090919091909150557f60b3e540896cf4a419e7b7274a1f1282223f5d92ca6f0152cf820fe457fb48438282336040516113d493929190613549565b60405180910390a15050565b6113f26113eb611b70565b8383611dc2565b5050565b60076020528060005260406000206000915090508060000160009054906101000a900473ffffffffffffffffffffffffffffffffffffffff16908060010154908060020154908060030160009054906101000a900460ff16905084565b6060600061146033610ebc565b905060008167ffffffffffffffff81111561147e5761147d612cef565b5b6040519080825280602002602001820160405280156114ac5781602001602082028036833780820191505090505b509050600080600190505b600a5481101561156c573373ffffffffffffffffffffffffffffffffffffffff166007600083815260200190815260200160002060000160009054906101000a900473ffffffffffffffffffffffffffffffffffffffff1673ffffffffffffffffffffffffffffffffffffffff1603611559578083838151811061153e5761153d613580565b5b602002602001018181525050818061155590613429565b9250505b808061156490613429565b9150506114b7565b5081935050505090565b611581848484610b84565b61159561158c611b70565b85858585611f31565b50505050565b60606115a682611aab565b5060006115b16120e2565b905060008151116115d157604051806020016040528060008152506115fc565b806115db846120f9565b6040516020016115ec9291906135eb565b6040516020818303038152906040525b915050919050565b6000600560008473ffffffffffffffffffffffffffffffffffffffff1673ffffffffffffffffffffffffffffffffffffffff16815260200190815260200160002060008373ffffffffffffffffffffffffffffffffffffffff1673ffffffffffffffffffffffffffffffffffffffff16815260200190815260200160002060009054906101000a900460ff16905092915050565b600660009054906101000a900473ffffffffffffffffffffffffffffffffffffffff1681565b600b60009054906101000a900473ffffffffffffffffffffffffffffffffffffffff1673ffffffffffffffffffffffffffffffffffffffff163373ffffffffffffffffffffffffffffffffffffffff161461174e576040517f08c379a00000000000000000000000000000000000000000000000000000000081526004016117459061365b565b60405180910390fd5b80600b60006101000a81548173ffffffffffffffffffffffffffffffffffffffff021916908373ffffffffffffffffffffffffffffffffffffffff16021790555050565b60007f01ffc9a7000000000000000000000000000000000000000000000000000000007bffffffffffffffffffffffffffffffffffffffffffffffffffffffff1916827bffffffffffffffffffffffffffffffffffffffffffffffffffffffff1916149050919050565b600080610e10836020015160095485604001514261181a919061305e565b611824919061367b565b61182e919061367b565b61183891906136ec565b905060006002846020015161184d91906136ec565b90508082111561185b578091505b6000600190508083101561186d578092505b829350505050919050565b600073ffffffffffffffffffffffffffffffffffffffff168273ffffffffffffffffffffffffffffffffffffffff16036118ea5760006040517f64a0ae920000000000000000000000000000000000000000000000000000000081526004016118e19190612a0d565b60405180910390fd5b60006118f883836000611b8a565b9050600073ffffffffffffffffffffffffffffffffffffffff168173ffffffffffffffffffffffffffffffffffffffff160361196b57816040517f7e27328900000000000000000000000000000000000000000000000000000000815260040161196291906128ff565b60405180910390fd5b8373ffffffffffffffffffffffffffffffffffffffff168173ffffffffffffffffffffffffffffffffffffffff16146119df578382826040517f64283d7b0000000000000000000000000000000000000000000000000000000081526004016119d693929190613288565b60405180910390fd5b50505050565b60005b8280549050811015611aa65781838281548110611a0857611a07613580565b5b906000526020600020015403611a93578260018480549050611a2a919061305e565b81548110611a3b57611a3a613580565b5b9060005260206000200154838281548110611a5957611a58613580565b5b906000526020600020018190555082805480611a7857611a7761371d565b5b60019003818190600052602060002001600090559055611aa6565b8080611a9e90613429565b9150506119e8565b505050565b600080611ab7836121c7565b9050600073ffffffffffffffffffffffffffffffffffffffff168173ffffffffffffffffffffffffffffffffffffffff1603611b2a57826040517f7e273289000000000000000000000000000000000000000000000000000000008152600401611b2191906128ff565b60405180910390fd5b80915050919050565b60006004600083815260200190815260200160002060009054906101000a900473ffffffffffffffffffffffffffffffffffffffff169050919050565b600033905090565b611b858383836001612204565b505050565b600080611b96846121c7565b9050600073ffffffffffffffffffffffffffffffffffffffff168373ffffffffffffffffffffffffffffffffffffffff1614611bd857611bd78184866123c9565b5b600073ffffffffffffffffffffffffffffffffffffffff168173ffffffffffffffffffffffffffffffffffffffff1614611c6957611c1a600085600080612204565b6001600360008373ffffffffffffffffffffffffffffffffffffffff1673ffffffffffffffffffffffffffffffffffffffff168152602001908152602001600020600082825403925050819055505b600073ffffffffffffffffffffffffffffffffffffffff168573ffffffffffffffffffffffffffffffffffffffff1614611cec576001600360008773ffffffffffffffffffffffffffffffffffffffff1673ffffffffffffffffffffffffffffffffffffffff168152602001908152602001600020600082825401925050819055505b846002600086815260200190815260200160002060006101000a81548173ffffffffffffffffffffffffffffffffffffffff021916908373ffffffffffffffffffffffffffffffffffffffff160217905550838573ffffffffffffffffffffffffffffffffffffffff168273ffffffffffffffffffffffffffffffffffffffff167fddf252ad1be2c89b69c2b068fc378daa952ba7f163c4a11628f55a4df523b3ef60405160405180910390a4809150509392505050565b611dbe82826040518060200160405280600081525061248d565b5050565b600073ffffffffffffffffffffffffffffffffffffffff168273ffffffffffffffffffffffffffffffffffffffff1603611e3357816040517f5b08ba18000000000000000000000000000000000000000000000000000000008152600401611e2a9190612a0d565b60405180910390fd5b80600560008573ffffffffffffffffffffffffffffffffffffffff1673ffffffffffffffffffffffffffffffffffffffff16815260200190815260200160002060008473ffffffffffffffffffffffffffffffffffffffff1673ffffffffffffffffffffffffffffffffffffffff16815260200190815260200160002060006101000a81548160ff0219169083151502179055508173ffffffffffffffffffffffffffffffffffffffff168373ffffffffffffffffffffffffffffffffffffffff167f17307eab39ab6107e8899845ad3d59bd9653f200f220920489ca2b5937696c3183604051611f249190612872565b60405180910390a3505050565b60008373ffffffffffffffffffffffffffffffffffffffff163b11156120db578273ffffffffffffffffffffffffffffffffffffffff1663150b7a02868685856040518563ffffffff1660e01b8152600401611f9094939291906137a1565b6020604051808303816000875af1925050508015611fcc57506040513d601f19601f82011682018060405250810190611fc99190613802565b60015b612050573d8060008114611ffc576040519150601f19603f3d011682016040523d82523d6000602084013e612001565b606091505b50600081510361204857836040517f64a0ae9200000000000000000000000000000000000000000000000000000000815260040161203f9190612a0d565b60405180910390fd5b805181602001fd5b63150b7a0260e01b7bffffffffffffffffffffffffffffffffffffffffffffffffffffffff1916817bffffffffffffffffffffffffffffffffffffffffffffffffffffffff1916146120d957836040517f64a0ae920000000000000000000000000000000000000000000000000000000081526004016120d09190612a0d565b60405180910390fd5b505b5050505050565b606060405180602001604052806000815250905090565b606060006001612108846124b1565b01905060008167ffffffffffffffff81111561212757612126612cef565b5b6040519080825280601f01601f1916602001820160405280156121595781602001600182028036833780820191505090505b509050600082602001820190505b6001156121bc578080600190039150507f3031323334353637383961626364656600000000000000000000000000000000600a86061a8153600a85816121b0576121af6136bd565b5b04945060008503612167575b819350505050919050565b60006002600083815260200190815260200160002060009054906101000a900473ffffffffffffffffffffffffffffffffffffffff169050919050565b808061223d5750600073ffffffffffffffffffffffffffffffffffffffff168273ffffffffffffffffffffffffffffffffffffffff1614155b1561237157600061224d84611aab565b9050600073ffffffffffffffffffffffffffffffffffffffff168373ffffffffffffffffffffffffffffffffffffffff16141580156122b857508273ffffffffffffffffffffffffffffffffffffffff168173ffffffffffffffffffffffffffffffffffffffff1614155b80156122cb57506122c98184611604565b155b1561230d57826040517fa9fbf51f0000000000000000000000000000000000000000000000000000000081526004016123049190612a0d565b60405180910390fd5b811561236f57838573ffffffffffffffffffffffffffffffffffffffff168273ffffffffffffffffffffffffffffffffffffffff167f8c5be1e5ebec7d5bd14f71427d1e84f3dd0314c0f7b2291e5b200ac8c7c3b92560405160405180910390a45b505b836004600085815260200190815260200160002060006101000a81548173ffffffffffffffffffffffffffffffffffffffff021916908373ffffffffffffffffffffffffffffffffffffffff16021790555050505050565b6123d4838383612604565b61248857600073ffffffffffffffffffffffffffffffffffffffff168373ffffffffffffffffffffffffffffffffffffffff160361244957806040517f7e27328900000000000000000000000000000000000000000000000000000000815260040161244091906128ff565b60405180910390fd5b81816040517f177e802f00000000000000000000000000000000000000000000000000000000815260040161247f92919061382f565b60405180910390fd5b505050565b61249783836126c5565b6124ac6124a2611b70565b6000858585611f31565b505050565b600080600090507a184f03e93ff9f4daa797ed6e38ed64bf6a1f010000000000000000831061250f577a184f03e93ff9f4daa797ed6e38ed64bf6a1f0100000000000000008381612505576125046136bd565b5b0492506040810190505b6d04ee2d6d415b85acef8100000000831061254c576d04ee2d6d415b85acef81000000008381612542576125416136bd565b5b0492506020810190505b662386f26fc10000831061257b57662386f26fc100008381612571576125706136bd565b5b0492506010810190505b6305f5e10083106125a4576305f5e100838161259a576125996136bd565b5b0492506008810190505b61271083106125c95761271083816125bf576125be6136bd565b5b0492506004810190505b606483106125ec57606483816125e2576125e16136bd565b5b0492506002810190505b600a83106125fb576001810190505b80915050919050565b60008073ffffffffffffffffffffffffffffffffffffffff168373ffffffffffffffffffffffffffffffffffffffff16141580156126bc57508273ffffffffffffffffffffffffffffffffffffffff168473ffffffffffffffffffffffffffffffffffffffff16148061267d575061267c8484611604565b5b806126bb57508273ffffffffffffffffffffffffffffffffffffffff166126a383611b33565b73ffffffffffffffffffffffffffffffffffffffff16145b5b90509392505050565b600073ffffffffffffffffffffffffffffffffffffffff168273ffffffffffffffffffffffffffffffffffffffff16036127375760006040517f64a0ae9200000000000000000000000000000000000000000000000000000000815260040161272e9190612a0d565b60405180910390fd5b600061274583836000611b8a565b9050600073ffffffffffffffffffffffffffffffffffffffff168173ffffffffffffffffffffffffffffffffffffffff16146127b95760006040517f73c6ac6e0000000000000000000000000000000000000000000000000000000081526004016127b09190612a0d565b60405180910390fd5b505050565b6000604051905090565b600080fd5b600080fd5b60007fffffffff0000000000000000000000000000000000000000000000000000000082169050919050565b612807816127d2565b811461281257600080fd5b50565b600081359050612824816127fe565b92915050565b6000602082840312156128405761283f6127c8565b5b600061284e84828501612815565b91505092915050565b60008115159050919050565b61286c81612857565b82525050565b60006020820190506128876000830184612863565b92915050565b6000819050919050565b6128a08161288d565b81146128ab57600080fd5b50565b6000813590506128bd81612897565b92915050565b6000602082840312156128d9576128d86127c8565b5b60006128e7848285016128ae565b91505092915050565b6128f98161288d565b82525050565b600060208201905061291460008301846128f0565b92915050565b600081519050919050565b600082825260208201905092915050565b60005b83811015612954578082015181840152602081019050612939565b60008484015250505050565b6000601f19601f8301169050919050565b600061297c8261291a565b6129868185612925565b9350612996818560208601612936565b61299f81612960565b840191505092915050565b600060208201905081810360008301526129c48184612971565b905092915050565b600073ffffffffffffffffffffffffffffffffffffffff82169050919050565b60006129f7826129cc565b9050919050565b612a07816129ec565b82525050565b6000602082019050612a2260008301846129fe565b92915050565b612a31816129ec565b8114612a3c57600080fd5b50565b600081359050612a4e81612a28565b92915050565b60008060408385031215612a6b57612a6a6127c8565b5b6000612a7985828601612a3f565b9250506020612a8a858286016128ae565b9150509250929050565b600080600060608486031215612aad57612aac6127c8565b5b6000612abb86828701612a3f565b9350506020612acc86828701612a3f565b9250506040612add868287016128ae565b9150509250925092565b600060208284031215612afd57612afc6127c8565b5b6000612b0b84828501612a3f565b91505092915050565b600081519050919050565b600082825260208201905092915050565b6000819050602082019050919050565b612b498161288d565b82525050565b6000612b5b8383612b40565b60208301905092915050565b6000602082019050919050565b6000612b7f82612b14565b612b898185612b1f565b9350612b9483612b30565b8060005b83811015612bc5578151612bac8882612b4f565b9750612bb783612b67565b925050600181019050612b98565b5085935050505092915050565b60006020820190508181036000830152612bec8184612b74565b905092915050565b60008060408385031215612c0b57612c0a6127c8565b5b6000612c19858286016128ae565b9250506020612c2a858286016128ae565b9150509250929050565b612c3d81612857565b8114612c4857600080fd5b50565b600081359050612c5a81612c34565b92915050565b60008060408385031215612c7757612c766127c8565b5b6000612c8585828601612a3f565b9250506020612c9685828601612c4b565b9150509250929050565b6000608082019050612cb560008301876129fe565b612cc260208301866128f0565b612ccf60408301856128f0565b612cdc6060830184612863565b95945050505050565b600080fd5b600080fd5b7f4e487b7100000000000000000000000000000000000000000000000000000000600052604160045260246000fd5b612d2782612960565b810181811067ffffffffffffffff82111715612d4657612d45612cef565b5b80604052505050565b6000612d596127be565b9050612d658282612d1e565b919050565b600067ffffffffffffffff821115612d8557612d84612cef565b5b612d8e82612960565b9050602081019050919050565b82818337600083830152505050565b6000612dbd612db884612d6a565b612d4f565b905082815260208101848484011115612dd957612dd8612cea565b5b612de4848285612d9b565b509392505050565b600082601f830112612e0157612e00612ce5565b5b8135612e11848260208601612daa565b91505092915050565b60008060008060808587031215612e3457612e336127c8565b5b6000612e4287828801612a3f565b9450506020612e5387828801612a3f565b9350506040612e64878288016128ae565b925050606085013567ffffffffffffffff811115612e8557612e846127cd565b5b612e9187828801612dec565b91505092959194509250565b60008060408385031215612eb457612eb36127c8565b5b6000612ec285828601612a3f565b9250506020612ed385828601612a3f565b9150509250929050565b6000819050919050565b6000612f02612efd612ef8846129cc565b612edd565b6129cc565b9050919050565b6000612f1482612ee7565b9050919050565b6000612f2682612f09565b9050919050565b612f3681612f1b565b82525050565b6000602082019050612f516000830184612f2d565b92915050565b7f486f757365206973206e6f74206c697374656420666f722073616c6500000000600082015250565b6000612f8d601c83612925565b9150612f9882612f57565b602082019050919050565b60006020820190508181036000830152612fbc81612f80565b9050919050565b7f596f7520616c7265616479206f776e207468697320686f757365000000000000600082015250565b6000612ff9601a83612925565b915061300482612fc3565b602082019050919050565b6000602082019050818103600083015261302881612fec565b9050919050565b7f4e487b7100000000000000000000000000000000000000000000000000000000600052601160045260246000fd5b60006130698261288d565b91506130748361288d565b925082820390508181111561308c5761308b61302f565b5b92915050565b60006060820190506130a760008301866129fe565b6130b460208301856129fe565b6130c160408301846128f0565b949350505050565b6000815190506130d881612c34565b92915050565b6000602082840312156130f4576130f36127c8565b5b6000613102848285016130c9565b91505092915050565b7f546f6b656e207472616e73666572206661696c65640000000000000000000000600082015250565b6000613141601583612925565b915061314c8261310b565b602082019050919050565b6000602082019050818103600083015261317081613134565b9050919050565b7f466565207472616e73666572206661696c656400000000000000000000000000600082015250565b60006131ad601383612925565b91506131b882613177565b602082019050919050565b600060208201905081810360008301526131dc816131a0565b9050919050565b60006080820190506131f860008301876128f0565b61320560208301866128f0565b61321260408301856129fe565b61321f60608301846129fe565b95945050505050565b7f4e487b7100000000000000000000000000000000000000000000000000000000600052602260045260246000fd5b6000600282049050600182168061326f57607f821691505b60208210810361328257613281613228565b5b50919050565b600060608201905061329d60008301866129fe565b6132aa60208301856128f0565b6132b760408301846129fe565b949350505050565b7f596f7520617265206e6f7420746865206f776e6572206f66207468697320686f60008201527f7573650000000000000000000000000000000000000000000000000000000000602082015250565b600061331b602383612925565b9150613326826132bf565b604082019050919050565b6000602082019050818103600083015261334a8161330e565b9050919050565b7f486f757365206973206e6f74206c697374656400000000000000000000000000600082015250565b6000613387601383612925565b915061339282613351565b602082019050919050565b600060208201905081810360008301526133b68161337a565b9050919050565b7f4f6e6c79206f776e65722063616e206d696e74206e657720686f757365730000600082015250565b60006133f3601e83612925565b91506133fe826133bd565b602082019050919050565b60006020820190508181036000830152613422816133e6565b9050919050565b60006134348261288d565b91507fffffffffffffffffffffffffffffffffffffffffffffffffffffffffffffffff82036134665761346561302f565b5b600182019050919050565b7f5072696365206d7573742062652067726561746572207468616e207a65726f00600082015250565b60006134a7601f83612925565b91506134b282613471565b602082019050919050565b600060208201905081810360008301526134d68161349a565b9050919050565b7f596f752063616e6e6f74206c697374206120686f757365207477696365000000600082015250565b6000613513601d83612925565b915061351e826134dd565b602082019050919050565b6000602082019050818103600083015261354281613506565b9050919050565b600060608201905061355e60008301866128f0565b61356b60208301856128f0565b61357860408301846129fe565b949350505050565b7f4e487b7100000000000000000000000000000000000000000000000000000000600052603260045260246000fd5b600081905092915050565b60006135c58261291a565b6135cf81856135af565b93506135df818560208601612936565b80840191505092915050565b60006135f782856135ba565b915061360382846135ba565b91508190509392505050565b7f4f6e6c79206f776e65722063616e20646f207468697300000000000000000000600082015250565b6000613645601683612925565b91506136508261360f565b602082019050919050565b6000602082019050818103600083015261367481613638565b9050919050565b60006136868261288d565b91506136918361288d565b925082820261369f8161288d565b915082820484148315176136b6576136b561302f565b5b5092915050565b7f4e487b7100000000000000000000000000000000000000000000000000000000600052601260045260246000fd5b60006136f78261288d565b91506137028361288d565b925082613712576137116136bd565b5b828204905092915050565b7f4e487b7100000000000000000000000000000000000000000000000000000000600052603160045260246000fd5b600081519050919050565b600082825260208201905092915050565b60006137738261374c565b61377d8185613757565b935061378d818560208601612936565b61379681612960565b840191505092915050565b60006080820190506137b660008301876129fe565b6137c360208301866129fe565b6137d060408301856128f0565b81810360608301526137e28184613768565b905095945050505050565b6000815190506137fc816127fe565b92915050565b600060208284031215613818576138176127c8565b5b6000613826848285016137ed565b91505092915050565b600060408201905061384460008301856129fe565b61385160208301846128f0565b939250505056fea2646970667358221220bac37f1101d9d731f08cd1831483c1477a1e25b28fb2611caac1bfa9e3c838f064736f6c63430008140033",
  "linkReferences": {},
  "deployedLinkReferences": {}
}