{
  "_format": "hh-sol-artifact-1",
  "contractName": "myERC",
  "sourceName": "contracts/myERC.sol",
  "abi": [
    {
      "inputs": [],
      "stateMutability": "nonpayable",
      "type": "constructor"
    },
    {
      "inputs": [
        {
          "internalType": "address",
          "name": "spender",
          "type": "address"
        },
        {
          "internalType": "uint256",
          "name": "allowance",
          "type": "uint256"
        },
        {
          "internalType": "uint256",
          "name": "needed",
          "type": "uint256"
        }
      ],
      "name": "ERC20InsufficientAllowance",
      "type": "error"
    },
    {
      "inputs": [
        {
          "internalType": "address",
          "name": "sender",
          "type": "address"
        },
        {
          "internalType": "uint256",
          "name": "balance",
          "type": "uint256"
        },
        {
          "internalType": "uint256",
          "name": "needed",
          "type": "uint256"
        }
      ],
      "name": "ERC20InsufficientBalance",
      "type": "error"
    },
    {
      "inputs": [
        {
          "internalType": "address",
          "name": "approver",
          "type": "address"
        }
      ],
      "name": "ERC20InvalidApprover",
      "type": "error"
    },
    {
      "inputs": [
        {
          "internalType": "address",
          "name": "receiver",
          "type": "address"
        }
      ],
      "name": "ERC20InvalidReceiver",
      "type": "error"
    },
    {
      "inputs": [
        {
          "internalType": "address",
          "name": "sender",
          "type": "address"
        }
      ],
      "name": "ERC20InvalidSender",
      "type": "error"
    },
    {
      "inputs": [
        {
          "internalType": "address",
          "name": "spender",
          "type": "address"
        }
      ],
      "name": "ERC20InvalidSpender",
      "type": "error"
    },
    {
      "anonymous": false,
      "inputs": [
        {
          "indexed": true,
          "internalType": "address",
          "name": "owner",
          "type": "address"
        },
        {
          "indexed": true,
          "internalType": "address",
          "name": "spender",
          "type": "address"
        },
        {
          "indexed": false,
          "internalType": "uint256",
          "name": "value",
          "type": "uint256"
        }
      ],
      "name": "Approval",
      "type": "event"
    },
    {
      "anonymous": false,
      "inputs": [
        {
          "indexed": true,
          "internalType": "address",
          "name": "from",
          "type": "address"
        },
        {
          "indexed": true,
          "internalType": "address",
          "name": "to",
          "type": "address"
        },
        {
          "indexed": false,
          "internalType": "uint256",
          "name": "value",
          "type": "uint256"
        }
      ],
      "name": "Transfer",
      "type": "event"
    },
    {
      "inputs": [
        {
          "internalType": "address",
          "name": "owner",
          "type": "address"
        },
        {
          "internalType": "address",
          "name": "spender",
          "type": "address"
        }
      ],
      "name": "allowance",
      "outputs": [
        {
          "internalType": "uint256",
          "name": "",
          "type": "uint256"
        }
      ],
      "stateMutability": "view",
      "type": "function"
    },
    {
      "inputs": [
        {
          "internalType": "address",
          "name": "spender",
          "type": "address"
        },
        {
          "internalType": "uint256",
          "name": "value",
          "type": "uint256"
        }
      ],
      "name": "approve",
      "outputs": [
        {
          "internalType": "bool",
          "name": "",
          "type": "bool"
        }
      ],
      "stateMutability": "nonpayable",
      "type": "function"
    },
    {
      "inputs": [
        {
          "internalType": "address",
          "name": "account",
          "type": "address"
        }
      ],
      "name": "balanceOf",
      "outputs": [
        {
          "internalType": "uint256",
          "name": "",
          "type": "uint256"
        }
      ],
      "stateMutability": "view",
      "type": "function"
    },
    {
      "inputs": [],
      "name": "buyToken",
      "outputs": [],
      "stateMutability": "payable",
      "type": "function"
    },
    {
      "inputs": [],
      "name": "decimals",
      "outputs": [
        {
          "internalType": "uint8",
          "name": "",
          "type": "uint8"
        }
      ],
      "stateMutability": "view",
      "type": "function"
    },
    {
      "inputs": [],
      "name": "depositEth",
      "outputs": [],
      "stateMutability": "payable",
      "type": "function"
    },
    {
      "inputs": [],
      "name": "feeAccount",
      "outputs": [
        {
          "internalType": "address",
          "name": "",
          "type": "address"
        }
      ],
      "stateMutability": "view",
      "type": "function"
    },
    {
      "inputs": [],
      "name": "getContractEthBalance",
      "outputs": [
        {
          "internalType": "uint256",
          "name": "",
          "type": "uint256"
        }
      ],
      "stateMutability": "view",
      "type": "function"
    },
    {
      "inputs": [],
      "name": "name",
      "outputs": [
        {
          "internalType": "string",
          "name": "",
          "type": "string"
        }
      ],
      "stateMutability": "view",
      "type": "function"
    },
    {
      "inputs": [
        {
          "internalType": "uint256",
          "name": "tokenAmount",
          "type": "uint256"
        }
      ],
      "name": "redeemEth",
      "outputs": [],
      "stateMutability": "nonpayable",
      "type": "function"
    },
    {
      "inputs": [],
      "name": "symbol",
      "outputs": [
        {
          "internalType": "string",
          "name": "",
          "type": "string"
        }
      ],
      "stateMutability": "view",
      "type": "function"
    },
    {
      "inputs": [],
      "name": "totalSupply",
      "outputs": [
        {
          "internalType": "uint256",
          "name": "",
          "type": "uint256"
        }
      ],
      "stateMutability": "view",
      "type": "function"
    },
    {
      "inputs": [
        {
          "internalType": "address",
          "name": "to",
          "type": "address"
        },
        {
          "internalType": "uint256",
          "name": "value",
          "type": "uint256"
        }
      ],
      "name": "transfer",
      "outputs": [
        {
          "internalType": "bool",
          "name": "",
          "type": "bool"
        }
      ],
      "stateMutability": "nonpayable",
      "type": "function"
    },
    {
      "inputs": [
        {
          "internalType": "address",
          "name": "from",
          "type": "address"
        },
        {
          "internalType": "address",
          "name": "to",
          "type": "address"
        },
        {
          "internalType": "uint256",
          "name": "value",
          "type": "uint256"
        }
      ],
      "name": "transferFrom",
      "outputs": [
        {
          "internalType": "bool",
          "name": "",
          "type": "bool"
        }
      ],
      "stateMutability": "nonpayable",
      "type": "function"
    },
    {
      "inputs": [
        {
          "internalType": "uint256",
          "name": "amount",
          "type": "uint256"
        }
      ],
      "name": "withdrawExcessEth",
      "outputs": [],
      "stateMutability": "nonpayable",
      "type": "function"
    }
  ],
  "bytecode": "0x60806040523480156200001157600080fd5b506040518060400160405280600781526020017f4d79546f6b656e000000000000000000000000000000000000000000000000008152506040518060400160405280600381526020017f4d544b000000000000000000000000000000000000000000000000000000000081525081600390816200008f919062000365565b508060049081620000a1919062000365565b50505033600560006101000a81548173ffffffffffffffffffffffffffffffffffffffff021916908373ffffffffffffffffffffffffffffffffffffffff1602179055506200044c565b600081519050919050565b7f4e487b7100000000000000000000000000000000000000000000000000000000600052604160045260246000fd5b7f4e487b7100000000000000000000000000000000000000000000000000000000600052602260045260246000fd5b600060028204905060018216806200016d57607f821691505b60208210810362000183576200018262000125565b5b50919050565b60008190508160005260206000209050919050565b60006020601f8301049050919050565b600082821b905092915050565b600060088302620001ed7fffffffffffffffffffffffffffffffffffffffffffffffffffffffffffffffff82620001ae565b620001f98683620001ae565b95508019841693508086168417925050509392505050565b6000819050919050565b6000819050919050565b600062000246620002406200023a8462000211565b6200021b565b62000211565b9050919050565b6000819050919050565b620002628362000225565b6200027a62000271826200024d565b848454620001bb565b825550505050565b600090565b6200029162000282565b6200029e81848462000257565b505050565b5b81811015620002c657620002ba60008262000287565b600181019050620002a4565b5050565b601f8211156200031557620002df8162000189565b620002ea846200019e565b81016020851015620002fa578190505b6200031262000309856200019e565b830182620002a3565b50505b505050565b600082821c905092915050565b60006200033a600019846008026200031a565b1980831691505092915050565b600062000355838362000327565b9150826002028217905092915050565b6200037082620000eb565b67ffffffffffffffff8111156200038c576200038b620000f6565b5b62000398825462000154565b620003a5828285620002ca565b600060209050601f831160018114620003dd5760008415620003c8578287015190505b620003d4858262000347565b86555062000444565b601f198416620003ed8662000189565b60005b828110156200041757848901518255600182019150602085019450602081019050620003f0565b8683101562000437578489015162000433601f89168262000327565b8355505b6001600288020188555050505b505050505050565b6117af806200045c6000396000f3fe6080604052600436106100e85760003560e01c80634de57d751161008a57806395d89b411161005957806395d89b41146102d7578063a482171914610302578063a9059cbb1461030c578063dd62ed3e14610349576100e8565b80634de57d751461021b57806365e17c9d1461024657806370a08231146102715780638ecafb85146102ae576100e8565b806323b872dd116100c657806323b872dd14610180578063313ce567146101bd578063439370b1146101e85780634bc3f0ec146101f2576100e8565b806306fdde03146100ed578063095ea7b31461011857806318160ddd14610155575b600080fd5b3480156100f957600080fd5b50610102610386565b60405161010f91906110f2565b60405180910390f35b34801561012457600080fd5b5061013f600480360381019061013a91906111ad565b610418565b60405161014c9190611208565b60405180910390f35b34801561016157600080fd5b5061016a61043b565b6040516101779190611232565b60405180910390f35b34801561018c57600080fd5b506101a760048036038101906101a2919061124d565b610445565b6040516101b49190611208565b60405180910390f35b3480156101c957600080fd5b506101d2610474565b6040516101df91906112bc565b60405180910390f35b6101f061047d565b005b3480156101fe57600080fd5b50610219600480360381019061021491906112d7565b610552565b005b34801561022757600080fd5b5061023061065a565b60405161023d9190611232565b60405180910390f35b34801561025257600080fd5b5061025b610662565b6040516102689190611313565b60405180910390f35b34801561027d57600080fd5b506102986004803603810190610293919061132e565b610688565b6040516102a59190611232565b60405180910390f35b3480156102ba57600080fd5b506102d560048036038101906102d091906112d7565b6106d0565b005b3480156102e357600080fd5b506102ec61080f565b6040516102f991906110f2565b60405180910390f35b61030a6108a1565b005b34801561031857600080fd5b50610333600480360381019061032e91906111ad565b610916565b6040516103409190611208565b60405180910390f35b34801561035557600080fd5b50610370600480360381019061036b919061135b565b610939565b60405161037d9190611232565b60405180910390f35b606060038054610395906113ca565b80601f01602080910402602001604051908101604052809291908181526020018280546103c1906113ca565b801561040e5780601f106103e35761010080835404028352916020019161040e565b820191906000526020600020905b8154815290600101906020018083116103f157829003601f168201915b5050505050905090565b6000806104236109c0565b90506104308185856109c8565b600191505092915050565b6000600254905090565b6000806104506109c0565b905061045d8582856109da565b610468858585610a6e565b60019150509392505050565b60006012905090565b600560009054906101000a900473ffffffffffffffffffffffffffffffffffffffff1673ffffffffffffffffffffffffffffffffffffffff163373ffffffffffffffffffffffffffffffffffffffff161461050d576040517f08c379a00000000000000000000000000000000000000000000000000000000081526004016105049061146d565b60405180910390fd5b60003411610550576040517f08c379a0000000000000000000000000000000000000000000000000000000008152600401610547906114d9565b60405180910390fd5b565b8061055c33610688565b101561059d576040517f08c379a000000000000000000000000000000000000000000000000000000000815260040161059490611545565b60405180910390fd5b60006103e8670de0b6b3a7640000836105b69190611594565b6105c09190611605565b905080471015610605576040517f08c379a00000000000000000000000000000000000000000000000000000000081526004016105fc90611682565b60405180910390fd5b61060f3383610b62565b3373ffffffffffffffffffffffffffffffffffffffff166108fc829081150290604051600060405180830381858888f19350505050158015610655573d6000803e3d6000fd5b505050565b600047905090565b600560009054906101000a900473ffffffffffffffffffffffffffffffffffffffff1681565b60008060008373ffffffffffffffffffffffffffffffffffffffff1673ffffffffffffffffffffffffffffffffffffffff168152602001908152602001600020549050919050565b600560009054906101000a900473ffffffffffffffffffffffffffffffffffffffff1673ffffffffffffffffffffffffffffffffffffffff163373ffffffffffffffffffffffffffffffffffffffff1614610760576040517f08c379a00000000000000000000000000000000000000000000000000000000081526004016107579061146d565b60405180910390fd5b804710156107a3576040517f08c379a000000000000000000000000000000000000000000000000000000000815260040161079a90611682565b60405180910390fd5b600560009054906101000a900473ffffffffffffffffffffffffffffffffffffffff1673ffffffffffffffffffffffffffffffffffffffff166108fc829081150290604051600060405180830381858888f1935050505015801561080b573d6000803e3d6000fd5b5050565b60606004805461081e906113ca565b80601f016020809104026020016040519081016040528092919081815260200182805461084a906113ca565b80156108975780601f1061086c57610100808354040283529160200191610897565b820191906000526020600020905b81548152906001019060200180831161087a57829003601f168201915b5050505050905090565b600034116108e4576040517f08c379a00000000000000000000000000000000000000000000000000000000081526004016108db906116ee565b60405180910390fd5b6000670de0b6b3a76400006103e8346108fd9190611594565b6109079190611605565b90506109133382610be4565b50565b6000806109216109c0565b905061092e818585610a6e565b600191505092915050565b6000600160008473ffffffffffffffffffffffffffffffffffffffff1673ffffffffffffffffffffffffffffffffffffffff16815260200190815260200160002060008373ffffffffffffffffffffffffffffffffffffffff1673ffffffffffffffffffffffffffffffffffffffff16815260200190815260200160002054905092915050565b600033905090565b6109d58383836001610c66565b505050565b60006109e68484610939565b90507fffffffffffffffffffffffffffffffffffffffffffffffffffffffffffffffff8114610a685781811015610a58578281836040517ffb8f41b2000000000000000000000000000000000000000000000000000000008152600401610a4f9392919061170e565b60405180910390fd5b610a6784848484036000610c66565b5b50505050565b600073ffffffffffffffffffffffffffffffffffffffff168373ffffffffffffffffffffffffffffffffffffffff1603610ae05760006040517f96c6fd1e000000000000000000000000000000000000000000000000000000008152600401610ad79190611313565b60405180910390fd5b600073ffffffffffffffffffffffffffffffffffffffff168273ffffffffffffffffffffffffffffffffffffffff1603610b525760006040517fec442f05000000000000000000000000000000000000000000000000000000008152600401610b499190611313565b60405180910390fd5b610b5d838383610e3d565b505050565b600073ffffffffffffffffffffffffffffffffffffffff168273ffffffffffffffffffffffffffffffffffffffff1603610bd45760006040517f96c6fd1e000000000000000000000000000000000000000000000000000000008152600401610bcb9190611313565b60405180910390fd5b610be082600083610e3d565b5050565b600073ffffffffffffffffffffffffffffffffffffffff168273ffffffffffffffffffffffffffffffffffffffff1603610c565760006040517fec442f05000000000000000000000000000000000000000000000000000000008152600401610c4d9190611313565b60405180910390fd5b610c6260008383610e3d565b5050565b600073ffffffffffffffffffffffffffffffffffffffff168473ffffffffffffffffffffffffffffffffffffffff1603610cd85760006040517fe602df05000000000000000000000000000000000000000000000000000000008152600401610ccf9190611313565b60405180910390fd5b600073ffffffffffffffffffffffffffffffffffffffff168373ffffffffffffffffffffffffffffffffffffffff1603610d4a5760006040517f94280d62000000000000000000000000000000000000000000000000000000008152600401610d419190611313565b60405180910390fd5b81600160008673ffffffffffffffffffffffffffffffffffffffff1673ffffffffffffffffffffffffffffffffffffffff16815260200190815260200160002060008573ffffffffffffffffffffffffffffffffffffffff1673ffffffffffffffffffffffffffffffffffffffff168152602001908152602001600020819055508015610e37578273ffffffffffffffffffffffffffffffffffffffff168473ffffffffffffffffffffffffffffffffffffffff167f8c5be1e5ebec7d5bd14f71427d1e84f3dd0314c0f7b2291e5b200ac8c7c3b92584604051610e2e9190611232565b60405180910390a35b50505050565b600073ffffffffffffffffffffffffffffffffffffffff168373ffffffffffffffffffffffffffffffffffffffff1603610e8f578060026000828254610e839190611745565b92505081905550610f62565b60008060008573ffffffffffffffffffffffffffffffffffffffff1673ffffffffffffffffffffffffffffffffffffffff16815260200190815260200160002054905081811015610f1b578381836040517fe450d38c000000000000000000000000000000000000000000000000000000008152600401610f129392919061170e565b60405180910390fd5b8181036000808673ffffffffffffffffffffffffffffffffffffffff1673ffffffffffffffffffffffffffffffffffffffff16815260200190815260200160002081905550505b600073ffffffffffffffffffffffffffffffffffffffff168273ffffffffffffffffffffffffffffffffffffffff1603610fab5780600260008282540392505081905550610ff8565b806000808473ffffffffffffffffffffffffffffffffffffffff1673ffffffffffffffffffffffffffffffffffffffff168152602001908152602001600020600082825401925050819055505b8173ffffffffffffffffffffffffffffffffffffffff168373ffffffffffffffffffffffffffffffffffffffff167fddf252ad1be2c89b69c2b068fc378daa952ba7f163c4a11628f55a4df523b3ef836040516110559190611232565b60405180910390a3505050565b600081519050919050565b600082825260208201905092915050565b60005b8381101561109c578082015181840152602081019050611081565b60008484015250505050565b6000601f19601f8301169050919050565b60006110c482611062565b6110ce818561106d565b93506110de81856020860161107e565b6110e7816110a8565b840191505092915050565b6000602082019050818103600083015261110c81846110b9565b905092915050565b600080fd5b600073ffffffffffffffffffffffffffffffffffffffff82169050919050565b600061114482611119565b9050919050565b61115481611139565b811461115f57600080fd5b50565b6000813590506111718161114b565b92915050565b6000819050919050565b61118a81611177565b811461119557600080fd5b50565b6000813590506111a781611181565b92915050565b600080604083850312156111c4576111c3611114565b5b60006111d285828601611162565b92505060206111e385828601611198565b9150509250929050565b60008115159050919050565b611202816111ed565b82525050565b600060208201905061121d60008301846111f9565b92915050565b61122c81611177565b82525050565b60006020820190506112476000830184611223565b92915050565b60008060006060848603121561126657611265611114565b5b600061127486828701611162565b935050602061128586828701611162565b925050604061129686828701611198565b9150509250925092565b600060ff82169050919050565b6112b6816112a0565b82525050565b60006020820190506112d160008301846112ad565b92915050565b6000602082840312156112ed576112ec611114565b5b60006112fb84828501611198565b91505092915050565b61130d81611139565b82525050565b60006020820190506113286000830184611304565b92915050565b60006020828403121561134457611343611114565b5b600061135284828501611162565b91505092915050565b6000806040838503121561137257611371611114565b5b600061138085828601611162565b925050602061139185828601611162565b9150509250929050565b7f4e487b7100000000000000000000000000000000000000000000000000000000600052602260045260246000fd5b600060028204905060018216806113e257607f821691505b6020821081036113f5576113f461139b565b5b50919050565b7f4f6e6c79206f776e65722063616e20776974686472617720657863657373204560008201527f5448000000000000000000000000000000000000000000000000000000000000602082015250565b600061145760228361106d565b9150611462826113fb565b604082019050919050565b600060208201905081810360008301526114868161144a565b9050919050565b7f4d7573742073656e642045544820746f206465706f7369740000000000000000600082015250565b60006114c360188361106d565b91506114ce8261148d565b602082019050919050565b600060208201905081810360008301526114f2816114b6565b9050919050565b7f4e6f7420656e6f75676820746f6b656e7320746f2072656465656d0000000000600082015250565b600061152f601b8361106d565b915061153a826114f9565b602082019050919050565b6000602082019050818103600083015261155e81611522565b9050919050565b7f4e487b7100000000000000000000000000000000000000000000000000000000600052601160045260246000fd5b600061159f82611177565b91506115aa83611177565b92508282026115b881611177565b915082820484148315176115cf576115ce611565565b5b5092915050565b7f4e487b7100000000000000000000000000000000000000000000000000000000600052601260045260246000fd5b600061161082611177565b915061161b83611177565b92508261162b5761162a6115d6565b5b828204905092915050565b7f4e6f7420656e6f7567682045544820696e20636f6e7472616374000000000000600082015250565b600061166c601a8361106d565b915061167782611636565b602082019050919050565b6000602082019050818103600083015261169b8161165f565b9050919050565b7f4d7573742073656e642045544820746f2062757920746f6b656e730000000000600082015250565b60006116d8601b8361106d565b91506116e3826116a2565b602082019050919050565b60006020820190508181036000830152611707816116cb565b9050919050565b60006060820190506117236000830186611304565b6117306020830185611223565b61173d6040830184611223565b949350505050565b600061175082611177565b915061175b83611177565b925082820190508082111561177357611772611565565b5b9291505056fea2646970667358221220db4e7b9a5a8a66a3f758060ad39a9803a119ea865ab00d2839010b89e9fe9aef64736f6c63430008140033",
  "linkReferences": {},
  "deployedLinkReferences": {}
}